{
  "contractName": "Voting",
  "abi": [
    {
      "anonymous": false,
      "inputs": [
        {
          "indexed": true,
          "internalType": "bytes32",
          "name": "candidateId",
          "type": "bytes32"
        },
        {
          "indexed": false,
          "internalType": "uint256",
          "name": "votes",
          "type": "uint256"
        }
      ],
      "name": "VoteCasted",
      "type": "event"
    },
    {
      "inputs": [
        {
          "internalType": "uint256",
          "name": "",
          "type": "uint256"
        }
      ],
      "name": "candidateIds",
      "outputs": [
        {
          "internalType": "bytes32",
          "name": "",
          "type": "bytes32"
        }
      ],
      "stateMutability": "view",
      "type": "function",
      "constant": true
    },
    {
      "inputs": [
        {
          "internalType": "bytes32",
          "name": "",
          "type": "bytes32"
        }
      ],
      "name": "candidates",
      "outputs": [
        {
          "internalType": "string",
          "name": "partyName",
          "type": "string"
        },
        {
          "internalType": "string",
          "name": "candidateName",
          "type": "string"
        },
        {
          "internalType": "uint256",
          "name": "votes",
          "type": "uint256"
        }
      ],
      "stateMutability": "view",
      "type": "function",
      "constant": true
    },
    {
      "inputs": [
        {
          "internalType": "bytes32",
          "name": "",
          "type": "bytes32"
        }
      ],
      "name": "hasVoted",
      "outputs": [
        {
          "internalType": "bool",
          "name": "",
          "type": "bool"
        }
      ],
      "stateMutability": "view",
      "type": "function",
      "constant": true
    },
    {
      "inputs": [
        {
          "internalType": "string",
          "name": "candidateId",
          "type": "string"
        },
        {
          "internalType": "string",
          "name": "_partyName",
          "type": "string"
        },
        {
          "internalType": "string",
          "name": "_candidateName",
          "type": "string"
        }
      ],
      "name": "addCandidate",
      "outputs": [],
      "stateMutability": "nonpayable",
      "type": "function"
    },
    {
      "inputs": [
        {
          "internalType": "string",
          "name": "candidateId",
          "type": "string"
        },
        {
          "internalType": "string",
          "name": "aadhaar",
          "type": "string"
        }
      ],
      "name": "vote",
      "outputs": [],
      "stateMutability": "nonpayable",
      "type": "function"
    },
    {
      "inputs": [],
      "name": "getResults",
      "outputs": [
        {
          "components": [
            {
              "internalType": "string",
              "name": "partyName",
              "type": "string"
            },
            {
              "internalType": "string",
              "name": "candidateName",
              "type": "string"
            },
            {
              "internalType": "uint256",
              "name": "votes",
              "type": "uint256"
            }
          ],
          "internalType": "struct Voting.Candidate[]",
          "name": "",
          "type": "tuple[]"
        }
      ],
      "stateMutability": "view",
      "type": "function",
      "constant": true
    },
    {
      "inputs": [
        {
          "internalType": "string",
          "name": "aadhaar",
          "type": "string"
        }
      ],
      "name": "checkIfVoted",
      "outputs": [
        {
          "internalType": "bool",
          "name": "",
          "type": "bool"
        }
      ],
      "stateMutability": "view",
      "type": "function",
      "constant": true
    },
    {
      "inputs": [],
      "name": "getCandidateIds",
      "outputs": [
        {
          "internalType": "bytes32[]",
          "name": "",
          "type": "bytes32[]"
        }
      ],
      "stateMutability": "view",
      "type": "function",
      "constant": true
    }
  ],
  "bytecode": "0x608060405234801561000f575f80fd5b506114f78061001d5f395ff3fe608060405234801561000f575f80fd5b5060043610610086575f3560e01c8063ad71f8dc11610059578063ad71f8dc1461013a578063bec0fde214610156578063ce8738a914610174578063e8d5940d146101a457610086565b8063030161301461008a5780631a0478d5146100ba5780631b4613cb146100ec5780634717f97c1461011c575b5f80fd5b6100a4600480360381019061009f919061090c565b6101c0565b6040516100b1919061094f565b60405180910390f35b6100d460048036038101906100cf9190610992565b6101e0565b6040516100e393929190610a56565b60405180910390f35b61010660048036038101906101019190610992565b610311565b6040516101139190610ab3565b60405180910390f35b61012461032e565b6040516101319190610c32565b60405180910390f35b610154600480360381019061014f9190610d7e565b610534565b005b61015e61064d565b60405161016b9190610ed9565b60405180910390f35b61018e60048036038101906101899190610ef9565b6106a3565b60405161019b9190610ab3565b60405180910390f35b6101be60048036038101906101b99190610f40565b6106f4565b005b600281815481106101cf575f80fd5b905f5260205f20015f915090505481565b5f602052805f5260405f205f91509050805f0180546101fe90610fe3565b80601f016020809104026020016040519081016040528092919081815260200182805461022a90610fe3565b80156102755780601f1061024c57610100808354040283529160200191610275565b820191905f5260205f20905b81548152906001019060200180831161025857829003601f168201915b50505050509080600101805461028a90610fe3565b80601f01602080910402602001604051908101604052809291908181526020018280546102b690610fe3565b80156103015780601f106102d857610100808354040283529160200191610301565b820191905f5260205f20905b8154815290600101906020018083116102e457829003601f168201915b5050505050908060020154905083565b6001602052805f5260405f205f915054906101000a900460ff1681565b60605f60028054905067ffffffffffffffff8111156103505761034f610c5a565b5b60405190808252806020026020018201604052801561038957816020015b6103766108a8565b81526020019060019003908161036e5790505b5090505f5b60028054905081101561052c575f80600283815481106103b1576103b0611013565b5b905f5260205f20015481526020019081526020015f206040518060600160405290815f820180546103e190610fe3565b80601f016020809104026020016040519081016040528092919081815260200182805461040d90610fe3565b80156104585780601f1061042f57610100808354040283529160200191610458565b820191905f5260205f20905b81548152906001019060200180831161043b57829003601f168201915b5050505050815260200160018201805461047190610fe3565b80601f016020809104026020016040519081016040528092919081815260200182805461049d90610fe3565b80156104e85780601f106104bf576101008083540402835291602001916104e8565b820191905f5260205f20905b8154815290600101906020018083116104cb57829003601f168201915b5050505050815260200160028201548152505082828151811061050e5761050d611013565b5b602002602001018190525080806105249061106d565b91505061038e565b508091505090565b5f8360405160200161054691906110ee565b6040516020818303038152906040528051906020012090505f805f8381526020019081526020015f20600101805461057d90610fe3565b9050146105bf576040517f08c379a00000000000000000000000000000000000000000000000000000000081526004016105b69061114e565b60405180910390fd5b60405180606001604052808481526020018381526020015f8152505f808381526020019081526020015f205f820151815f0190816105fd9190611309565b5060208201518160010190816106139190611309565b5060408201518160020155905050600281908060018154018082558091505060019003905f5260205f20015f909190919091505550505050565b6060600280548060200260200160405190810160405280929190818152602001828054801561069957602002820191905f5260205f20905b815481526020019060010190808311610685575b5050505050905090565b5f80826040516020016106b691906110ee565b60405160208183030381529060405280519060200120905060015f8281526020019081526020015f205f9054906101000a900460ff16915050919050565b5f8260405160200161070691906110ee565b6040516020818303038152906040528051906020012090505f8260405160200161073091906110ee565b6040516020818303038152906040528051906020012090505f805f8481526020019081526020015f20600101805461076790610fe3565b9050116107a9576040517f08c379a00000000000000000000000000000000000000000000000000000000081526004016107a090611422565b60405180910390fd5b60015f8281526020019081526020015f205f9054906101000a900460ff1615610807576040517f08c379a00000000000000000000000000000000000000000000000000000000081526004016107fe9061148a565b60405180910390fd5b6001805f8381526020019081526020015f205f6101000a81548160ff0219169083151502179055505f808381526020019081526020015f206002015f8154809291906108529061106d565b9190505550817fbf8e3be76511fbc133be248f8ea28794eaaec7574547d2ce1a374f36a1674aa25f808581526020019081526020015f206002015460405161089a91906114a8565b60405180910390a250505050565b604051806060016040528060608152602001606081526020015f81525090565b5f604051905090565b5f80fd5b5f80fd5b5f819050919050565b6108eb816108d9565b81146108f5575f80fd5b50565b5f81359050610906816108e2565b92915050565b5f60208284031215610921576109206108d1565b5b5f61092e848285016108f8565b91505092915050565b5f819050919050565b61094981610937565b82525050565b5f6020820190506109625f830184610940565b92915050565b61097181610937565b811461097b575f80fd5b50565b5f8135905061098c81610968565b92915050565b5f602082840312156109a7576109a66108d1565b5b5f6109b48482850161097e565b91505092915050565b5f81519050919050565b5f82825260208201905092915050565b5f5b838110156109f45780820151818401526020810190506109d9565b5f8484015250505050565b5f601f19601f8301169050919050565b5f610a19826109bd565b610a2381856109c7565b9350610a338185602086016109d7565b610a3c816109ff565b840191505092915050565b610a50816108d9565b82525050565b5f6060820190508181035f830152610a6e8186610a0f565b90508181036020830152610a828185610a0f565b9050610a916040830184610a47565b949350505050565b5f8115159050919050565b610aad81610a99565b82525050565b5f602082019050610ac65f830184610aa4565b92915050565b5f81519050919050565b5f82825260208201905092915050565b5f819050602082019050919050565b5f82825260208201905092915050565b5f610b0f826109bd565b610b198185610af5565b9350610b298185602086016109d7565b610b32816109ff565b840191505092915050565b610b46816108d9565b82525050565b5f606083015f8301518482035f860152610b668282610b05565b91505060208301518482036020860152610b808282610b05565b9150506040830151610b956040860182610b3d565b508091505092915050565b5f610bab8383610b4c565b905092915050565b5f602082019050919050565b5f610bc982610acc565b610bd38185610ad6565b935083602082028501610be585610ae6565b805f5b85811015610c205784840389528151610c018582610ba0565b9450610c0c83610bb3565b925060208a01995050600181019050610be8565b50829750879550505050505092915050565b5f6020820190508181035f830152610c4a8184610bbf565b905092915050565b5f80fd5b5f80fd5b7f4e487b71000000000000000000000000000000000000000000000000000000005f52604160045260245ffd5b610c90826109ff565b810181811067ffffffffffffffff82111715610caf57610cae610c5a565b5b80604052505050565b5f610cc16108c8565b9050610ccd8282610c87565b919050565b5f67ffffffffffffffff821115610cec57610ceb610c5a565b5b610cf5826109ff565b9050602081019050919050565b828183375f83830152505050565b5f610d22610d1d84610cd2565b610cb8565b905082815260208101848484011115610d3e57610d3d610c56565b5b610d49848285610d02565b509392505050565b5f82601f830112610d6557610d64610c52565b5b8135610d75848260208601610d10565b91505092915050565b5f805f60608486031215610d9557610d946108d1565b5b5f84013567ffffffffffffffff811115610db257610db16108d5565b5b610dbe86828701610d51565b935050602084013567ffffffffffffffff811115610ddf57610dde6108d5565b5b610deb86828701610d51565b925050604084013567ffffffffffffffff811115610e0c57610e0b6108d5565b5b610e1886828701610d51565b9150509250925092565b5f81519050919050565b5f82825260208201905092915050565b5f819050602082019050919050565b610e5481610937565b82525050565b5f610e658383610e4b565b60208301905092915050565b5f602082019050919050565b5f610e8782610e22565b610e918185610e2c565b9350610e9c83610e3c565b805f5b83811015610ecc578151610eb38882610e5a565b9750610ebe83610e71565b925050600181019050610e9f565b5085935050505092915050565b5f6020820190508181035f830152610ef18184610e7d565b905092915050565b5f60208284031215610f0e57610f0d6108d1565b5b5f82013567ffffffffffffffff811115610f2b57610f2a6108d5565b5b610f3784828501610d51565b91505092915050565b5f8060408385031215610f5657610f556108d1565b5b5f83013567ffffffffffffffff811115610f7357610f726108d5565b5b610f7f85828601610d51565b925050602083013567ffffffffffffffff811115610fa057610f9f6108d5565b5b610fac85828601610d51565b9150509250929050565b7f4e487b71000000000000000000000000000000000000000000000000000000005f52602260045260245ffd5b5f6002820490506001821680610ffa57607f821691505b60208210810361100d5761100c610fb6565b5b50919050565b7f4e487b71000000000000000000000000000000000000000000000000000000005f52603260045260245ffd5b7f4e487b71000000000000000000000000000000000000000000000000000000005f52601160045260245ffd5b5f611077826108d9565b91507fffffffffffffffffffffffffffffffffffffffffffffffffffffffffffffffff82036110a9576110a8611040565b5b600182019050919050565b5f81905092915050565b5f6110c8826109bd565b6110d281856110b4565b93506110e28185602086016109d7565b80840191505092915050565b5f6110f982846110be565b915081905092915050565b7f43616e64696461746520494420616c7265616479206578697374732e000000005f82015250565b5f611138601c836109c7565b915061114382611104565b602082019050919050565b5f6020820190508181035f8301526111658161112c565b9050919050565b5f819050815f5260205f209050919050565b5f6020601f8301049050919050565b5f82821b905092915050565b5f600883026111c87fffffffffffffffffffffffffffffffffffffffffffffffffffffffffffffffff8261118d565b6111d2868361118d565b95508019841693508086168417925050509392505050565b5f819050919050565b5f61120d611208611203846108d9565b6111ea565b6108d9565b9050919050565b5f819050919050565b611226836111f3565b61123a61123282611214565b848454611199565b825550505050565b5f90565b61124e611242565b61125981848461121d565b505050565b5b8181101561127c576112715f82611246565b60018101905061125f565b5050565b601f8211156112c1576112928161116c565b61129b8461117e565b810160208510156112aa578190505b6112be6112b68561117e565b83018261125e565b50505b505050565b5f82821c905092915050565b5f6112e15f19846008026112c6565b1980831691505092915050565b5f6112f983836112d2565b9150826002028217905092915050565b611312826109bd565b67ffffffffffffffff81111561132b5761132a610c5a565b5b6113358254610fe3565b611340828285611280565b5f60209050601f831160018114611371575f841561135f578287015190505b61136985826112ee565b8655506113d0565b601f19841661137f8661116c565b5f5b828110156113a657848901518255600182019150602085019450602081019050611381565b868310156113c357848901516113bf601f8916826112d2565b8355505b6001600288020188555050505b505050505050565b7f43616e64696461746520646f6573206e6f742065786973742e000000000000005f82015250565b5f61140c6019836109c7565b9150611417826113d8565b602082019050919050565b5f6020820190508181035f83015261143981611400565b9050919050565b7f596f75206861766520616c726561647920766f7465642e0000000000000000005f82015250565b5f6114746017836109c7565b915061147f82611440565b602082019050919050565b5f6020820190508181035f8301526114a181611468565b9050919050565b5f6020820190506114bb5f830184610a47565b9291505056fea264697066735822122040e648123bcf0682d283ce9778415a84bb00ba01aaf2aafa6480a9d5964e64ff64736f6c63430008150033",
  "immutableReferences": {},
  "source": "// SPDX-License-Identifier: MIT\r\npragma solidity ^0.8.0;\r\n\r\ncontract Voting {\r\n    struct Candidate {\r\n        string partyName;\r\n        string candidateName;\r\n        uint256 votes;\r\n    }\r\n\r\n    mapping(bytes32 => Candidate) public candidates; // Use bytes32 as key\r\n    mapping(bytes32 => bool) public hasVoted;        // Tracks if a voter has voted\r\n    bytes32[] public candidateIds;                   // Store candidate IDs for retrieval\r\n\r\n    // Event to log results\r\n    event VoteCasted(bytes32 indexed candidateId, uint256 votes);\r\n    \r\n    // Function to add a candidate with a custom ID\r\n    function addCandidate(string memory candidateId, string memory _partyName, string memory _candidateName) public {\r\n        bytes32 candidateKey = keccak256(abi.encodePacked(candidateId));  // Hash candidate ID\r\n        require(bytes(candidates[candidateKey].candidateName).length == 0, \"Candidate ID already exists.\");\r\n\r\n        // Add the candidate to the mapping\r\n        candidates[candidateKey] = Candidate(_partyName, _candidateName, 0);\r\n        candidateIds.push(candidateKey);  // Add the candidate ID to the list\r\n    }\r\n\r\n    // Voting function with Aadhaar ID check\r\n    function vote(string memory candidateId, string memory aadhaar) public {\r\n        bytes32 candidateKey = keccak256(abi.encodePacked(candidateId)); // Hash candidate ID\r\n        bytes32 aadhaarHash = keccak256(abi.encodePacked(aadhaar));      // Hash Aadhaar ID\r\n        require(bytes(candidates[candidateKey].candidateName).length > 0, \"Candidate does not exist.\");\r\n        require(!hasVoted[aadhaarHash], \"You have already voted.\");      // Check if the voter has already voted\r\n        \r\n        hasVoted[aadhaarHash] = true;  // Mark the voter as having voted\r\n        candidates[candidateKey].votes++;\r\n        \r\n        emit VoteCasted(candidateKey, candidates[candidateKey].votes);\r\n    }\r\n\r\n    // Function to get vote results for all candidates\r\n    function getResults() public view returns (Candidate[] memory) {\r\n        Candidate[] memory result = new Candidate[](candidateIds.length);\r\n        for (uint256 i = 0; i < candidateIds.length; i++) {\r\n            result[i] = candidates[candidateIds[i]];\r\n        }\r\n        return result;\r\n    }\r\n\r\n    // Function to check if a voter has voted\r\n    function checkIfVoted(string memory aadhaar) public view returns (bool) {\r\n        bytes32 aadhaarHash = keccak256(abi.encodePacked(aadhaar));\r\n        return hasVoted[aadhaarHash];  // Return whether the voter has voted\r\n    }\r\n\r\n    // Function to get candidate IDs (for frontend or other applications)\r\n    function getCandidateIds() public view returns (bytes32[] memory) {\r\n        return candidateIds;\r\n    }\r\n}\r\n",
  "sourcePath": "D:\\Apnavote\\votingsystem\\contracts\\voting.sol",
  "compiler": {
    "name": "solc",
    "version": "0.8.21+commit.d9974bed.Emscripten.clang"
  },
  "schemaVersion": "3.4.16",
  "updatedAt": "2024-11-05T16:35:39.135Z",
  "networkType": "ethereum",
  "devdoc": {
    "kind": "dev",
    "methods": {},
    "version": 1
  },
  "userdoc": {
    "kind": "user",
    "methods": {},
    "version": 1
  }
}